:020000040000FA
:060000000A128A110C280F
:10000800FE00030EF3000A08F4000A128A114728BA
:100018000A128A110F28F501F601F701F801830188
:100028000A128A1117280A128A116B200A128A11D9
:100038000A128A11BD200A128A1100308312031392
:10004800A000A1000A128A11A8200A128A117508B4
:100058007604031D302831282B280130F5000030A4
:10006800F6001A3083120313A500F730A400A40B7E
:100078003B28A50B3B284028831203139F142B28E9
:100088000A128A110C28831203130C1F4C284D28BE
:1000980056281E08F100F2017108F7007208F800EE
:1000A800F501F6010C138C1D5A285B286428770883
:1000B8000A128A11D0200A128A11831203138C1192
:1000C80074088A00730E8300FE0E7E0E09008B17DB
:1000D8000B17831603178801890108148316031365
:1000E800870186018801890185010514831203139C
:1000F8008801860187018901A001A101A20124309C
:100108000A128A118A200A128A110800831203131C
:10011800A30083160313871283120313231D952844
:1001280096289C2822088316031394008715A22872
:1001380020082204831603139400871183120313E3
:1001480023082104940008008312031320082104C3
:10015800031DAF28B028B228C3309F05200321040F
:10016800031DB728B828BC281F08C33904389F00C6
:100178000800831203131F179F13831603139F018D
:10018800C330831203139F051F14831603130C1720
:10019800831203130C130800F00070088312031372
:0401A80093000800B8
:04400E00D423FF3F79
:00000001FF
