:020000040000FA
:060000000A128A110C280F
:10000800FE00030EF2000A08F3000A128A115728AC
:100018000A128A110F28F601F701F801F901830184
:100028000A128A1117280A128A116E200A128A11D6
:100038000030F400F5000A128A1140200A128A11D1
:1000480076087704031D29282A2824280130F60079
:100058000030F7001A3083120313A100F730A00014
:10006800A00B3428A10B34283928831203139F14BA
:1000780024280A128A110C2874087504031D4528BF
:1000880046284A28C330831203139F057403750456
:10009800031D4F2850285628831203131F08C339FD
:1000A80004389F000800831203130C1F5C285D2886
:1000B80066281E08F000F1017008F8007108F900C0
:1000C800F601F7010C1373088A00720E8300FE0E06
:1000D8007E0E0900831203131F179F138316031341
:1000E8009F01C330831203139F051F148316031344
:0A00F8000C17831203130C13080009
:04400E00D423FF3F79
:00000001FF
