:020000040000FA
:060000000A128A110C280F
:10000800FE00030EF3000A08F4000A128A114B28B6
:100018000A128A110F28F501F601F701F801830188
:100028000A128A1117280A128A116F200A128A11D5
:100038000A128A11C3200A128A110030831203138C
:10004800A000A1000A128A11AE200A128A117508AE
:100058007604031D3028312843280130F50000308C
:10006800F6001A3083120313A500F730A400A40B7E
:100078003B28A50B3B284028831203139F147708BD
:100088008312031388002B280A128A110C28831262
:1000980003130C1F502851285A281E08F100F2019A
:1000A8007108F7007208F800F501F6010C138C1DB1
:1000B8005E285F28682877080A128A11D6200A1253
:1000C8008A11831203138C1174088A00730E83003B
:1000D800FE0E7E0E09008B170B1783160317880177
:1000E80089010814831603138701071686018801FE
:1000F8008901850105148516831203138801860179
:1001080087018901A001A101A20124300A128A11E4
:1001180090200A128A11080083120313A300831681
:100128000313871283120313231D9B289C28A228DC
:1001380022088316031394008715A8282008220490
:1001480083160313940087118312031323082104D1
:10015800940008008312031320082104031DB52806
:10016800B628B828C3309F0520032104031DBD28E5
:10017800BE28C2281F08C33904389F00080083120C
:1001880003131F179F13831603139F01C330831292
:1001980003139F051F14831603130C1783120313ED
:1001A8000C130800F0007008831203139300080072
:04400E00D423FF3F79
:00000001FF
