:020000040000FA
:060000000A128A11F82F1C
:100E7400F000700883120313930008008316031311
:100E8400141C452F462F402F08000A128A114027B0
:100E94000A128A118312031313080800F30083163D
:100EA40003138712731D572F582F5C2F7208940059
:100EB4008715602F700872049400871173087104F9
:100EC4008312031394000800831603178801890111
:100ED40083160313870107168601880183120313FF
:100EE40086018801061486140615F001F101F20149
:100EF40020300A128A1150270A128A1108000A1295
:100F04008A1166270A128A118312031306100D3000
:100F1400F500FB30F400F40B8D2FF50B8D2F922F81
:100F240001300A128A113A270A128A110A128A1106
:100F340047270A128A11F4007408F9000D30F500ED
:100F4400FB30F400F40BA42FF50BA42FA92F83126C
:100F54000313061486100D30F500FB30F400F40B77
:100F6400B12FF50BB12FB62F01300A128A113A278F
:100F74000A128A110A128A1147270A128A11F400E6
:100F84007408F7000D30F500FB30F400F40BC82FA3
:100F9400F50BC82FCD2F83120313861406110D30C1
:100FA400F500FB30F400F40BD52FF50BD52FDA2F19
:100FB40001300A128A113A270A128A110A128A1176
:100FC40047270A128A11F4007408F8000D30F5005E
:100FD400FB30F400F40BEC2FF50BEC2FF12F831204
:100FE40003130615862F0A128A110028F601F70149
:0C0FF400F801F90183010A128A11812F13
:04400E00D423FF3F79
:00000001FF
