:020000040000FA
:060000000A128A11F82F1C
:100EAC0083160313141C5B2F5C2F562F08000A1299
:100EBC008A1156270A128A11831203131308080089
:100ECC00F300831603138712731D6D2F6E2F722F71
:100EDC00720894008715762F70087204940087119D
:100EEC00730871048312031394000800831603170C
:100EFC008801890183160313850187018601880106
:100F0C008312031386018801061486140615F0015A
:100F1C00F101F20120300A128A1166270A128A1195
:100F2C0008000330F3009730F200F20B9B2FF30B09
:100F3C009B2FA02F0A128A115D270A128A11F20028
:100F4C007208F8000330F3009730F200F20BAC2F6C
:100F5C00F30BAC2FB12F780808000A128A117C27EA
:100F6C000A128A118312031306080139F400F501E1
:100F7C007408F0007508F1000A128A1197270A12FA
:100F8C008A11F6007608FB0083120313060C013954
:100F9C00F400F5017408F0007508F1000A128A11CA
:100FAC0097270A128A11F6007608F90083120313A8
:100FBC00060CF400740C0139F500F6017508F0000C
:100FCC007608F1000A128A1197270A128A11F70083
:100FDC007708FA007B08831203138800B82F0A12D3
:100FEC008A110028F801F901FA01FB0183010A12A8
:040FFC008A11B32F74
:04400E00D423FF3F79
:00000001FF
