:020000040000FA
:060000000A128A11F82F1C
:100E9400F0007008831203139300080083160313F1
:100EA400141C552F562F502F08000A128A11502750
:100EB4000A128A118312031313080800F30083161D
:100EC40003138712731D672F682F6C2F7208940009
:100ED4008715702F700872049400871173087104C9
:100EE40083120313940008008316031788018901F1
:100EF40083160313870107168601880183120313DF
:100F040086018801061486140615F001F101F20128
:100F140020300A128A1160270A128A11080003304D
:100F2400F4009730F300F30B952FF40B952F9A2FC1
:100F340001300A128A114A270A128A110A128A11E6
:100F440057270A128A11F3007308F9000330F400DA
:100F54009730F300F30BAC2FF40BAC2FB12F7908BF
:100F640008000A128A1176270A128A1183120313BF
:100F740006080139F500F6017508F1007608F2005B
:100F84000A128A1191270A128A11F7007708FC00C5
:100F940083120313060C0139F500F6017508F100FC
:100FA4007608F2000A128A1191270A128A11F700B0
:100FB4007708FA0083120313060CF500750C013947
:100FC400F600F7017608F1007708F2000A128A1198
:100FD40091270A128A11F8007808FB007B08831213
:100FE40003138800B82F0A128A110028F901FA01A4
:0C0FF400FB01FC0183010A128A11B32FDB
:04400E00D423FF3F79
:00000001FF
