:020000040000FA
:060000000A128A11F92F1B
:100F120083160313141C8E2F8F2F892F08000A1299
:100F22008A1189270A128A118312031313080800EF
:100F32008312031306100330F4009730F300F30B0F
:100F4200A02FF40BA02FA52F0A128A1190270A12A4
:100F52008A11F3007308F2000330F4009730F300B3
:100F6200F30BB12FF40BB12FB62F83120313061418
:100F720086100330F4009730F300F30BBE2FF40B0E
:100F8200BE2FC32F0A128A1190270A128A11F30068
:100F92007308F0000330F4009730F300F30BCF2F07
:100FA200F40BCF2FD42F8312031386148610033031
:100FB200F4009730F300F30BDC2FF40BDC2FE12F5E
:100FC2000A128A1190270A128A11F3007308F1009B
:100FD2000330F4009730F300F30BED2FF40BED2FF9
:100FE200F22F831203138614992F0A128A110028F2
:0E0FF200F001F101F20183010A128A11992F18
:04400E00D423FF3F79
:00000001FF
