:020000040000FA
:100000000A128A11EC2F00308A000408840A820741
:100010000034533431343A340034533432343A34C3
:0A0020000034533433343A34003412
:10002E000330F6000830F5007730F400F40B1D288D
:10003E00F50B1D28F60B1D2800300A128A152026F6
:10004E000A128A114130F500EE30F400F40B2D281F
:10005E00F50B2D28000030300A128A1575260A126B
:10006E008A111330F5002D30F400F40B3C28F50BFB
:10007E003C2830300A128A1575260A128A118530EC
:10008E00F400F40B482830300A128A1575260A122D
:10009E008A118530F400F40B522838300A128A1572
:1000AE0075260A128A1110300A128A1575260A123E
:1000BE008A1101300A128A1575260A128A11063023
:1000CE000A128A1575260A128A110C300A128A151E
:1000DE0075260A128A110800F80078080319782884
:1000EE0079288D28F31F7C287D288D287009FA0029
:1000FE007109FB007209FC007309FD00FA0A03196D
:10010E00FB0A0319FC0A0319FD0A95287308FD0062
:10011E007208FC007108FB007008FA007308720484
:10012E0071047004031D9C289D28A6280030F3003E
:10013E000030F2000030F1000030F0002C29963033
:10014E00F4007408F900B8280130F4007408F907B7
:10015E0001300310FD0CFC0CFB0CFA0CFF3E031DD2
:10016E00B028FE307D05031DBD28BE28AB28DA2839
:10017E000130F4007408F9070130FA070030031853
:10018E000130FB07003003180130FC070030031864
:10019E000130FD0701300310FD0CFC0CFB0CFA0CBA
:1001AE00FF3E031DD228FF307D05031DDF28E0280A
:1001BE00BF28EC280130F9020130F4000310FA0DCB
:1001CE00FB0DFC0DFD0DF40BE528FC1BEF28F028B4
:1001DE00F628023079020318F528F628E128791856
:1001EE00F928FA280229FF30FA05FF30FB057F3087
:1001FE00FC05FF30FD050310F90C7908F400F5013C
:10020E00F601F70118300310F40DF50DF60DF70D8C
:10021E00FF3E031D0A297408FA047508FB047608CC
:10022E00FC047708FD04780803191E291F292429C8
:10023E00F31F222923292429FD177D08F3007C08AA
:10024E00F2007B08F1007A08F00008007A088312A9
:10025E000313A000A1012008F0002108F1007C0882
:10026E00F3007B08F2000A128A15F4260A128A118C
:10027E00710883120313CA007008C9006430F000BD
:10028E000030F1004A08F3004908F2000A128A15FC
:10029E0040270A128A11700883120313A000200847
:1002AE00FD007D08A000A1012008F0002108F1004A
:1002BE009C30F200FF30F3000A128A15F4260A125F
:1002CE008A118312031349087007C9004A080318DC
:1002DE004A0A7107CA000A30F0000030F1004A08DD
:1002EE00F3004908F2000A128A1540270A128A11F1
:1002FE00700883120313A0002008F8007808A000ED
:10030E00A1012008F0002108F100F630F200FF30C4
:10031E00F3000A128A15F4260A128A1183120313A5
:10032E0049087007C9004A0803184A0A7107CA002B
:10033E004908A0002008F9000730A0002008F400AA
:10034E0002300A128A15AB260A128A117D08303E37
:10035E0083120313A0002008FD007D080A128A15DF
:10036E0049260A128A11083083120313A0002008AE
:10037E00F40002300A128A15AB260A128A11780886
:10038E00303E83120313A0002008F80078080A12EA
:10039E008A1549260A128A11093083120313A00006
:1003AE002008F40002300A128A15AB260A128A11AE
:1003BE007908303E83120313A0002008F900790853
:1003CE000A128A1549260A128A1108007A0883121F
:1003DE000313A000A1012008F0002108F1007C0801
:1003EE00F3007B08F2000A128A15F4260A128A110B
:1003FE00710883120313CA007008C9006430F0003C
:10040E000030F1004A08F3004908F2000A128A157A
:10041E0040270A128A11700883120313A0002008C5
:10042E00FD007D08A000A1012008F0002108F100C8
:10043E009C30F200FF30F3000A128A15F4260A12DD
:10044E008A118312031349087007C9004A0803185A
:10045E004A0A7107CA000A30F0000030F1004A085B
:10046E00F3004908F2000A128A1540270A128A116F
:10047E00700883120313A0002008F8007808A0006B
:10048E00A1012008F0002108F100F630F200FF3043
:10049E00F3000A128A15F4260A128A118312031324
:1004AE0049087007C9004A0803184A0A7107CA00AA
:1004BE004908A0002008F900F401F40A02300A12DB
:1004CE008A15AB260A128A117D08303E8312031359
:1004DE00A0002008FD007D080A128A1549260A127E
:1004EE008A11023083120313A0002008F400023098
:1004FE000A128A15AB260A128A117D08303E831223
:10050E000313A0002008FD0003300A128A15CF261F
:10051E000A128A11033083120313A0002008F4007C
:10052E0002300A128A15AB260A128A117808303E5A
:10053E0083120313A0002008F80078080A128A1507
:10054E0049260A128A11043083120313A0002008D0
:10055E00F40002300A128A15AB260A128A117908A3
:10056E00303E83120313A0002008F90079080A1206
:10057E008A1549260A128A1108000A128A158F2630
:10058E000A128A110A128A1117200A128A110A12E5
:10059E008A153C260A128A118312031306100D3097
:1005AE0083120313C600FB30C500C50BDC2AC60B35
:1005BE00DC2A01300A128A1526260A128A110A121C
:1005CE008A1533260A128A1183120313C5004508B1
:1005DE00D6000D3083120313C600FB30C500C50BC9
:1005EE00F62AC60BF62A83120313061486100D3054
:1005FE0083120313C600FB30C500C50B042BC60BBC
:10060E00042B01300A128A1526260A128A110A12A2
:10061E008A1533260A128A1183120313C500450860
:10062E00D4000D3083120313C600FB30C500C50B7A
:10063E001E2BC60B1E2B83120313861406110D30B0
:10064E0083120313C600FB30C500C50B2C2BC60B43
:10065E002C2B01300A128A1526260A128A110A122A
:10066E008A1533260A128A1183120313C500450810
:10067E00D5000D3083120313C600FB30C500C50B29
:10068E00462BC60B462B831203130615F401F40AF0
:10069E0001300A128A15AB260A128A1101300A128B
:1006AE008A15CF260A128A11073083120313C5004A
:1006BE004508F40001300A128A15AB260A128A1177
:1006CE0005300A128A15CF260A128A110D308312AE
:1006DE000313C5004508F40001300A128A15AB2633
:1006EE000A128A1109300A128A15CF260A128A11A5
:1006FE00F801F901831203135608C5004508FA00E4
:10070E000230FB000030FC0000300A128A11ED218D
:10071E000A128A11F801F901831203135408C50055
:10072E004508FA000130FB000030FC0000300A12D0
:10073E008A112D210A128A11453083120313550294
:10074E000318AA2BAB2BEA2B5508C500C601C7010F
:10075E00C8014808F3004708F2004608F1004508B2
:10076E00F00001300A128A1173200A128A117308DE
:10077E0083120313A7007208A6007108A500700863
:10078E00A4003E30A300FA30A2005E30A100353046
:10079E00A0000A128A118B240A128A1183120313E3
:1007AE002308BD002208BC002108BB002008BA00A7
:1007BE000A128A1584270A128A11831203133B0820
:1007CE00CA003A08C9005508C500C601C701C801CC
:1007DE004808F3004708F2004608F1004508F0000B
:1007EE0001300A128A1173200A128A1173088312B9
:1007FE000313A7007208A6007108A5007008A400D4
:10080E003E30A300FA30A2005E30A1003530A000C9
:10081E000A128A118B240A128A11831203132308D7
:10082E00BD002208BC002108BB002008BA000A1235
:10083E008A1584270A128A11831203133B08CA00F1
:10084E003A08C9006430F0000030F1004A08F300A5
:10085E004908F2000A128A1540270A128A117008F6
:10086E0083120313C5004508D0005008C500C60109
:10087E004508F0004608F1009C30F200FF30F3000E
:10088E000A128A15F4260A128A11831203134908D2
:10089E007007C9004A0803184A0A7107CA000A30CD
:1008AE00F0000030F1004A08F3004908F2000A1285
:1008BE008A1540270A128A11700883120313C50085
:1008CE004508CF004F08C500C6014508F000460890
:1008DE00F100F630F200FF30F3000A128A15F4260A
:1008EE000A128A118312031349087007C9004A08B5
:1008FE0003184A0A7107CA004908C5004508CE0008
:10090E00D32A0A128A11002883120313230880396E
:10091E00A8002808AD002308A8002807A900290868
:10092E00B300A21F9B2C9C2C9D2C3314330803194F
:10093E00A12CA22CB12C330A031DA62CA72CAF2C54
:10094E000030A3000030A2000030A1000030A00053
:10095E00A217B92C0030A3000030A2000030A10075
:10096E000030A00027088039A8002808AD06270807
:10097E00A8002807A9002908B200A61FC72CC82C5A
:10098E00C92C321432080319CD2CCE2CDD2C320A90
:10099E00031DD22CD32CDB2C0030A7000030A60078
:1009AE000030A5000030A400A617E52C0030A700EB
:1009BE000030A6000030A5000030A4003208031954
:1009CE00E92CEA2CEF2C3308031DEE2CEF2CF82C1F
:1009DE000030A3000030A2000030A1000030A000C3
:1009EE00EB2F2008A8002808F00026080A128A1506
:1009FE0019270A128A11710883120313B90070089D
:100A0E00B8003808A800A901AA01AB012B08B10053
:100A1E002A08B0002908AF002808AE003908A8003F
:100A2E00A901AA01AB012B08B7002A08B6002908B4
:100A3E00B5002808B4002108A8002808F0002508F1
:100A4E000A128A1519270A128A11710883120313C2
:100A5E00B9007008B8003808A800A901AA01AB01B6
:100A6E002808AE07290803110318013E0319402D6B
:100A7E00AF072A0803110318013E0319472DB007CB
:100A8E002B0803110318013E03194E2DB107390827
:100A9E00A800A901AA01AB012808B407290803116F
:100AAE000318013E03195C2DB5072A08031103181C
:100ABE00013E0319632DB6072B0803110318013EDF
:100ACE0003196A2DB7072208A8002808F000240889
:100ADE000A128A1519270A128A1171088312031332
:100AEE00B9007008B8003808A800A901AA01AB0126
:100AFE002808AE07290803110318013E0319882D93
:100B0E00AF072A0803110318013E03198F2DB007F2
:100B1E002B0803110318013E0319962DB10739084E
:100B2E00A800A901AA01AB012808B40729080311DE
:100B3E000318013E0319A42DB5072A080311031843
:100B4E00013E0319AB2DB6072B0803110318013E06
:100B5E000319B22DB7070830A8000310AE0DAF0D64
:100B6E00B00DB10DA80BB42D2108A8002808F00077
:100B7E0024080A128A1519270A128A11710883127B
:100B8E000313B9007008B8003808A8003908A90086
:100B9E00AA01AB012808AE07290803110318013E6C
:100BAE000319DA2DAF072A0803110318013E0319A2
:100BBE00E12DB0072B0803110318013E0319E82D90
:100BCE00B1072008A8002808F00025080A128A1587
:100BDE0019270A128A11710883120313B9007008BB
:100BEE00B8003808A8003908A900AA01AB012808E6
:100BFE00AE07290803110318013E0319072EAF078C
:100C0E002A0803110318013E03190E2EB0072B08F4
:100C1E0003110318013E0319152EB1070830A80061
:100C2E000310AE0DAF0DB00DB10DA80B172E200891
:100C3E00A8002808F00024080A128A1519270A129B
:100C4E008A11710883120313B9007008B8003808AE
:100C5E00A8003908A900AA01AB012808AE07290887
:100C6E0003110318013E03193D2EAF072A08031185
:100C7E000318013E0319442EB0072B080311031865
:100C8E00013E03194B2EB1072108A8002808F000D9
:100C9E0026080A128A1519270A128A117108831258
:100CAE000313B9007008B8003808A8003908A90065
:100CBE00AA01AB012808B407290803110318013E45
:100CCE0003196A2EB5072A0803110318013E0319EA
:100CDE00712EB6072B0803110318013E0319782E47
:100CEE00B7072208A8002808F00025080A128A155E
:100CFE0019270A128A11710883120313B90070089A
:100D0E00B8003808A8003908A900AA01AB012808C4
:100D1E00B407290803110318013E0319972EB507CE
:100D2E002A0803110318013E03199E2EB6072B083D
:100D3E0003110318013E0319A52EB7072208A800B8
:100D4E002808F00026080A128A1519270A128A1195
:100D5E00710883120313B9007008B8003808A80090
:100D6E003908A900AA01AB0108300310A80DA90D7E
:100D7E00AA0DAB0DFF3E031DBC2E2808B407290893
:100D8E0003110318013E0319CD2EB5072A080311CE
:100D9E000318013E0319D42EB6072B0803110318AE
:100DAE00013E0319DB2EB7072E08A8002F08A90055
:100DBE003008AA003108AB0018300310AB0CAA0C97
:100DCE00A90CA80CFF3E031DE42E2808B407290821
:100DDE0003110318013E0319F52EB5072A08031156
:100DEE000318013E0319FC2EB6072B080311031836
:100DFE00013E0319032FB7070830A8000310AE0DEC
:100E0E00AF0DB00DB10DA80B052F33083207A8009A
:100E1E00A901A90D2808823EB80029080318013E31
:100E2E00FF3EB900372F0130A8000310B40DB50DE9
:100E3E00B60DB70DA80B1C2FB11F262F272F282F4D
:100E4E0034140130A8000310AE0DAF0DB00DB10D6E
:100E5E00A80B2A2FFF30B8070318B90AFF30B907BD
:100E6E00B61F3A2F3B2F1A2FB201B11F3F2F402F23
:100E7E005C2FFF302E05A800FF302F05A900FF3094
:100E8E003005AA007F303105AB002B082A04290457
:100E9E0028040319532F542F572FB201B20A5C2F77
:100EAE00341C5A2F5B2F5C2F542F32080319602FDE
:100EBE00612F922F0130B407003003180130B507AF
:100ECE00003003180130B607003003180130B707A1
:100EDE00371C722F732F922F3408A8003508A900E3
:100EEE003608AA003708AB000130AC002B0DAB0C56
:100EFE00AA0CA90CA80CAC0B7D2F2B08B7002A0846
:100F0E00B6002908B5002808B4000130B807031848
:100F1E00B90A0030B9073908803AFF0080307F02E5
:100F2E00031D9B2FFF303802031C9E2F9F2FAA2FCD
:100F3E007F3083120313B7008030B6000030B50047
:100F4E000030B400DF2F831203133908803AFF00FC
:100F5E0080307F02031DB52F013038020318B82FE1
:100F6E00B92FC52F003083120313B7000030B6001F
:100F7E000030B5000030B400AD01DF2F8312031333
:100F8E003808A8002808B300FF30B405FF30B505B7
:100F9E007F30B6050030B705331CD62FD72FD82F8C
:100FAE00B6173308A8000310280CA9002908B700AB
:100FBE002D08A8002808B7043708A3003608A20099
:100FCE003508A1003408A000080083120313C901DC
:100FDE00CA01CB01CC01CD01CE01CF01D001D1018F
:100FEE00D201D301D401D501D60183010A128A118F
:020FFE00C42A03
:101C4000F00070088312031388000800F000700889
:101C5000831203139300080083160313141C312E00
:101C6000322E2C2E08000A128A152C260A128A15EA
:101C7000831203131308080000300A128A15752610
:101C80000A128A1501300A128A1575260A128A1557
:101C90000800F20083120313091472080A128A154D
:101CA00020260A128A158312031389141A30F100B0
:101CB000F10B582E00008312031389100800F30063
:101CC000831603138712731D662E672E6B2E720800
:101CD000940087156F2E70087204940087117308A2
:101CE00071048312031394000800F300831203139A
:101CF000091073080A128A1520260A128A158312FF
:101D0000031389140B30F2006230F100F10B862EC0
:101D1000F20B862E0000831203138910080083162D
:101D200003178801890183160313870107168601AB
:101D30008901880183120313860188010614861421
:101D40000615F001F101F20120300A128A155F2612
:101D50000A128A150800F6007603031DB02EB12E74
:101D6000BD2E74087F3EF5007508F70077080A124B
:101D70008A1575260A128A15CE2E02307606031DA4
:101D8000C22EC32ECE2E7408BF3EF5007508F70094
:101D900077080A128A1575260A128A150800F500B6
:101DA000F301F401E62E7308750784000A128A1104
:101DB00003200A128A150A128A1549260A128A1560
:101DC0000130F3070318F40A0030F40773087507AD
:101DD00084000A128A1103200A128A15003A031D90
:101DE000F22EF32ED32E0800F401F501701CF92E0B
:101DF000FA2E002F7208F4070318F50A7308F50786
:101E000001300310F20DF30DFF3E031D012F0130D1
:101E10000310F10CF00CFF3E031D082F7008710435
:101E2000031D132F142FF62E7508F1007408F0000F
:101E30000800F800F401F5017008F200F3017208DF
:101E4000F6007308F700781C262F272F2D2F760811
:101E5000F4070318F50A7708F50701300310F60DAB
:101E6000F70DFF3E031D2E2F0310F80C7808031DFD
:101E70003A2F3B2F232F7508F1007408F00008005B
:101E8000F501F601700871040319472F482F7F2FC1
:101E9000F701F70A562F01300310F00DF10DFF3E48
:101EA000031D4C2F0130F4007408F707F11F592F60
:101EB0005A2F4B2F01300310F50DF60DFF3E031D79
:101EC0005B2F71087302031D672F70087202031CD9
:101ED0006A2F6B2F722F7008F2027108031CF30334
:101EE000F302751401300310F10CF00CFF3E031DDA
:101EF000732F0130F702031D7E2F7F2F5A2F760894
:101F0000F1007508F00008000310831203133C0D64
:101F10003D0DBE003E08C4004408031D902F912FC4
:101F20009A2F0030BD000030BC000030BB000030F4
:101F3000BA00FF2F3A08BE003B08BF003C08C000B3
:101F40003D08C1001F300310C10CC00CBF0CBE0CFB
:101F5000FF3E031DA32F3E08C2004208C300BC176A
:101F6000FF30BA05FF30BB05FF30BC050030BD05B2
:101F70009630C402C41FBD2FBE2FD82F4408803A0C
:101F8000973E0318C42FC52FC62F912F0130031081
:101F9000BD0CBC0CBB0CBA0CFF3E031DC72F01309F
:101FA000BE003E08C407031DD62FD72FC62FEF2F24
:101FB00020304402031CDD2FDE2FEA2F912F013049
:101FC000BE000310BA0DBB0DBC0DBD0DBE0BE12F45
:101FD0000130C4024408031DEE2FEF2FDF2F43080A
:101FE0000319F32FF42FFF2FBA09BB09BC09BD0950
:101FF000BA0A0319BB0A0319BC0A0319BD0A08006F
:04400E00D423FF3F79
:00000001FF
