:020000040000FA
:060000000A128A110C280F
:10000800FE00030EF1000A08F2000A128A156029A0
:100018000A128A110F28FA018313623084006F30A4
:100028000A128A1517210A128A11A0308400D930C1
:100038000A128A1517210A128A1183010A128A15CF
:10004800BC2B83120313D1000030B5000630B60074
:10005800FF30B700FF30B8000030A3000030A20026
:100068000030A1000230A000831603133408831265
:100078000313A70083160313330883120313A60080
:1000880083160313320883120313A5008316031380
:10009800310883120313A4000A128A1539240A129C
:1000A8008A11831203132008B50721080318210FAA
:1000B8005E285F28B60722080318220F64286528DF
:1000C800B70723080318230AB8073808E1003708D8
:1000D800E0003608DF003508DE000030A3000030FD
:1000E800A2000030A1000430A0006108A700600849
:1000F800A6005F08A5005E08A4000A128A15392424
:100108000A128A11831203132308AB002208AA00DB
:100118002108A9002008A8000030A3000030A20090
:100128000030A1000430A0006108A7006008A60004
:100138005F08A5005E08A4000A128A1539240A126D
:100148008A11831203132308AF002208AE00210886
:10015800AD002008AC000A128A151E230A128A1163
:10016800831203132B08D5002A08D4002908D300CA
:100178002808D2000030A3000030A2000830A100F7
:100188000030A0005508A7005408A6005308A50091
:100198005208A4000A128A1539240A128A118312F5
:1001A80003132308AB002208AA002108A90020088D
:1001B800A80083160313490883120313AC0083169F
:1001C80003134A0883120313AD000030AD1BFF3040
:1001D800AE00AF000A128A151E230A128A11831272
:1001E80003132B08D9002A08D8002908D7002808A3
:1001F800D6005608B5005708B6005808B700590881
:10020800B80083160313470883120313A800831644
:100218000313480883120313A9000030A91BFF30F9
:10022800AA00AB006108AF006008AE005F08AD002F
:100238005E08AC000A128A151E230A128A1183125C
:1002480003132808B9002908BA002A08BB002B089C
:10025800BC0001300310B90DBA0DBB0DBC0DFF3E3B
:10026800031D2E293908B5073A0803183A0F3D2906
:100278003E29B6073B0803183B0F43294429B70713
:100288003C0803183C0AB8073808D9003708D800D2
:100298003608D7003508D60083160313450883129D
:1002A8000313B50083160313460883120313B6001D
:1002B800B701B80110300310B50DB60DB70DB80D64
:1002C800FF3E031D5F290030A3000030A20000306C
:1002D800A1000430A0005908A7005808A600570834
:1002E800A5005608A4000A128A1539240A128A1190
:1002F800831203132008B50721080318210F852945
:100308008629B60722080318220F8B298C29B707DC
:1003180023080318230AB8073808D9003708D80073
:100328003608D7003508D6000030A3000030A200F8
:100338000030A1000430A0006108A7006008A600F2
:100348005F08A5005E08A4000A128A1539240A125B
:100358008A11831203132308AB002208AA0021087C
:10036800A9002008A8000030A3000030A200003037
:10037800A1000430A0006108A7006008A6005F087B
:10038800A5005E08A4000A128A1539240A128A11E7
:10039800831203132308AF002208AE002108AD0022
:1003A8002008AC000A128A151E230A128A11831229
:1003B80003132B08D5002A08D4002908D3002808DD
:1003C800D20083160313430883120313A80083166D
:1003D8000313440883120313A9000030A91BFF303C
:1003E800AA00AB000030A3000030A2002030A1001A
:1003F8000030A0005508A7005408A6005308A5001F
:100408005208A4000A128A1539240A128A11831282
:1004180003132308AF002208AE002108AD0020080E
:10042800AC000A128A151E230A128A1183120313BA
:100438002B08C8002A08C7002908C6002808C500D4
:100448000030A3000030A2000030A1000230A0005C
:1004580083160313410883120313A800831603139A
:10046800420883120313A9000030A91BFF30AA0019
:10047800AB006108AF006008AE005F08AD005E0821
:10048800AC000A128A151E230A128A11831203135A
:100498002B08A7002A08A6002908A5002808A400F8
:1004A8000A128A1539240A128A11831203132008A2
:1004B800B5002108B6002208B7002308B8000030AC
:1004C800A3000030A2000030A1000830A0004808B6
:1004D800A7004708A6004608A5004508A4000A1278
:1004E8008A1539240A128A11831203132008B507C2
:1004F80021080318210F812A822AB6072208031827
:10050800220F872A882AB70723080318230AB8075F
:100518003808CC003708CB003608CA003508C900AF
:100528000030A3000430A2000030A1000030A00079
:100538004C08A7004B08A6004A08A5004908A400D3
:100548000A128A1539240A128A11831203132308FE
:10055800E1002208E0002108DF002008DE0000306A
:10056800A3000030A2008030A1000030A0000030BD
:10057800B5008030B6000030B7000030B8005E0823
:10058800B5075F0803185F0FCA2ACB2AB6076008A9
:100598000318600FD02AD12AB70761080318610A27
:1005A800B8073808AB003708AA003608A90035088C
:1005B800A800831603133F0883120313AC008316A5
:1005C8000313400883120313AD00AE01AF010A12F2
:1005D8008A151E230A128A11831203132B08A700F7
:1005E8002A08A6002908A5002808A4000A128A15C6
:1005F80039240A128A11831203132308E1002208FE
:10060800E0002108DF002008DE00610860045F04C4
:100618005E04031D102B112B122B5A2D0030B50030
:100628000030B6001030B7000030B8000030A3002A
:100638000030A2001030A1000030A0005908A70027
:100648005808A6005708A5005608A4000A128A15DB
:1006580039240A128A1183160313350983120313E6
:10066800B90083160313360983120313BA008316DD
:100678000313370983120313BB00831603133809C6
:1006880083120313BC00B90A0319BA0A0319BB0A77
:100698000319BC0A2008B9022108031C210F552B95
:1006A800562BBA022208031C220F5B2B5C2BBB02C1
:1006B8002308031C230F612B622BBC023908B507E2
:1006C8003A0803183A0F692B6A2BB6073B08031838
:1006D8003B0F6F2B702BB7073C0803183C0AB80771
:1006E8003808AB003708AA003608A9003508A80062
:1006F8000030AF000030AE000C30AD003530AC003B
:100708000A128A151E230A128A11831203132B0850
:10071800DD002A08DC002908DB002808DA00803020
:100728005D02031DA32B00305C02031DA32B0030C8
:100738005B02031DA32B00305A02031DA32B0318D1
:10074800A62BA72BCA2B831203136108A3006008EA
:10075800A2005F08A1005E08A00003105A0DA400C3
:100768005B0DA5005C0DA6005D0DA7000A128A119D
:100778008D270A128A11831203132308DD00220829
:10078800DC002108DB002008DA00EC2B83120313BD
:100798006108A3006008A2005F08A1005E08A0002D
:1007A8005D08A7005C08A6005B08A5005A08A4001D
:1007B8000A128A118D270A128A1103108312031351
:1007C800200DDA00210DDB00220DDC00230DDD00F9
:1007D8005A08B5005B08B6005C08B7005D08B800A9
:1007E80003300310B80CB70CB60CB50CFF3E031D54
:1007F800F52B3808AF003708AE003608AD003508CD
:10080800AC005A08B9005B08BA005C08BB005D0878
:10081800BC0003300310BC0CBB0CBA0CB90CFF3E77
:10082800031D0E2C3C08AB003B08AA003A08A9009F
:100838003908A8000A128A151E230A128A1183127F
:1008480003132808BD002908BE002A08BF002B088A
:10085800C0000D300310C00CBF0CBE0CBD0CFF3E19
:10086800031D2E2C4008D0003F08CF003E08CE00C4
:100878003D08CD000030A3000030A2001030A100D8
:100888000030A000831603134F0883120313A80037
:1008980083160313500883120313A9000030A91B01
:1008A800FF30AA00AB005008AF004F08AE004E085A
:1008B800AD004D08AC000A128A151E230A128A11CF
:1008C800831203132B08A7002A08A6002908A500ED
:1008D8002808A4000A128A1539240A128A118312D8
:1008E80003132308E1002208E0002108DF002008A4
:1008F800DE000030A3000030A2002030A10000304C
:10090800A0005A08B5005B08B6005C08B7005D088F
:10091800B80002300310B80CB70CB60CB50CFF3E8B
:10092800031D8E2C3808AB003708AA003608A9002A
:100938003508A800831603134D0883120313AC006F
:10094800831603134E0883120313AD000030AD1B4A
:10095800FF30AE00AF000A128A151E230A128A1150
:10096800831203132B08A7002A08A6002908A5004C
:100978002808A4000A128A1539240A128A11831237
:1009880003132308D9002208D8002108D70020081B
:10099800D6000030A3000030A2000030A1001030C3
:1009A800A0005608B5005708B6005808B7005908FF
:1009B800B8005E08B9005F08BA006008BB006108AB
:1009C800BC00831603134B0883120313BD00831660
:1009D80003134C0883120313BE000030BE1BFF3004
:1009E800BF00C0003D08B9073E0803183E0FFD2CA4
:1009F800FE2CBA073F0803183F0F032D042DBB0731
:100A080040080318400ABC073908B5073A08031814
:100A18003A0F0F2D102DB6073B0803183B0F152D65
:100A2800162DB7073C0803183C0AB8073808A70072
:100A38003708A6003608A5003508A4000A128A154A
:100A480039240A128A118312031320085A07C10095
:100A58000030031801302107C3010318C30A5B07DC
:100A6800C2000318C30A22084307C4010318C40AB2
:100A78005C07C3000318C40A230844075D07C400C1
:100A88004408DD004308DC004208DB004108DA00C6
:100A9800510884005A0883138000840A5B08800088
:100AA800840A5C088000840A5D08800008008312BC
:100AB8000313D1000A128A15D6240A128A11831642
:100AC8000313390883120313B500831603133A0876
:100AD80083120313B600B701B80101300310B50D36
:100AE800B60DB70DB80DFF3E031D722D0030A300E3
:100AF8000030A2000030A1000830A0006508A7005F
:100B08006408A6006308A5006208A4000A128A15F2
:100B180039240A128A11831203132008B900210804
:100B2800BA002208BB002308BC003508B902360801
:100B3800031C360FA02DA12DBA023708031C370F4E
:100B4800A62DA72DBB023808031C380FAC2DAD2DE0
:100B5800BC023C08AB003B08AA003A08A9003908C7
:100B6800A800831603133B0883120313AC008316F3
:100B780003133C0883120313AD000030AD1BFF3094
:100B8800AE00AF000A128A151E230A128A118312B8
:100B980003132B08D5002A08D4002908D3002808F5
:100BA800D2000030A3000030A2000830A1000030BD
:100BB800A0005508A7005408A6005308A50052082D
:100BC800A4000A128A1539240A128A1183120313FF
:100BD8002308C8002208C7002108C6002008C5004D
:100BE80083160313390883120313B50083160313FE
:100BF8003A0883120313B600B701B8010030A30006
:100C08000030A2000030A1001030A0006508A70045
:100C18006408A6006308A5006208A4000A128A15E1
:100C280039240A128A11831203132008B9002108F3
:100C3800BA002208BB002308BC003508B9023608F0
:100C4800031C360F282E292EBA023708031C370F2B
:100C58002E2E2F2EBB023808031C380F342E352EAB
:100C6800BC023C08AB003B08AA003A08A9003908B6
:100C7800A80083160313390883120313BD008316D3
:100C880003133A0883120313BE00BF01C0010030EA
:100C9800A3000030A2000030A1001030A0006508B9
:100CA800A7006408A6006308A5006208A4000A1249
:100CB8008A1539240A128A11831203132008C100E5
:100CC8002108C2002208C3002308C4003D08C1024D
:100CD8003E08031C3E0F712E722EC2023F08031CF1
:100CE8003F0F772E782EC3024008031C400F7D2E3D
:100CF8007E2EC4024408AF004308AE004208AD008F
:100D08004108AC000A128A151E230A128A1183129E
:100D180003132B08D5002A08D4002908D300280873
:100D2800D2000030A3000030A2001030A100003033
:100D3800A0005508A7005408A6005308A5005208AB
:100D4800A4000A128A1539240A128A11831203137D
:100D58002308AB002208AA002108A9002008A8003F
:100D6800831603133D0883120313AC008316031381
:100D78003E0883120313AD000030AD1BFF30AE00F8
:100D8800AF000A128A151E230A128A11831203134E
:100D98002B08D0002A08CF002908CE002808CD004B
:100DA8000030A3000030A2004030A1000030A000B5
:100DB8005008A7004F08A6004E08A5004D08A4003B
:100DC8000A128A1539240A128A1183120313230876
:100DD800CC002208CB002108CA002008C900450819
:100DE8004907B5000030031801304607B70103185A
:100DF800B70A4A07B6000318B70A47083707B80101
:100E08000318B80A4B07B7000318B80A4808380788
:100E18004C07B800380883160313B4008312031371
:100E2800370883160313B300831203133608831697
:100E38000313B20083120313350883160313B1009A
:100E4800003083120313A3000030A2000130A10078
:100E58000030A0008030B5000030B6000030B70088
:100E68000030B80083160313340883120313AB0051
:100E780083160313330883120313AA00831603137C
:100E8800320883120313A90083160313310883124F
:100E98000313A8000030AF000030AE000030AD00F2
:100EA8000530AC000A128A151E230A128A11831211
:100EB80003132808B50729080318290F642F652F7D
:100EC800B6072A0803182A0F6A2F6B2FB7072B08B3
:100ED80003182B0AB8073808A7003708A6003608F1
:100EE800A5003508A4000A128A1539240A128A11A5
:100EF8008312031351088400200883138000840A96
:100F080021088000840A22088000840A23088000BF
:100F180008000030F7000030F6000030F50000301F
:100F2800F400831203132308220421042004031964
:100F38009E2F9F2FEC2FF801F80AAF2F0130F300F6
:100F48000310A00DA10DA20DA30DF30BA42F0130CA
:100F5800F3007308F807A31FB22FB32FA22F013095
:100F6800F3000310F40DF50DF60DF70DF30BB52F87
:100F780023082702031DCA2F22082602031DCA2F91
:100F880021082502031DCA2F20082402031CCD2F87
:100F9800CE2FDD2F2008A4022108031C210FA50253
:100FA8002208031C220FA6022308031C230FA702F2
:100FB800741401300310A30CA20CA10CA00CFF3E6A
:100FC800031DDE2F0130F802031DEB2FEC2FB32F8A
:100FD8007708A3007608A2007508A1007408A0008D
:100FE800080007308A000408840A82070034233482
:060FF80000342E34003429
:10122E0064008001840A0406031900340406182998
:10123E000A128A1545210A128A15831603131114F0
:10124E0008000A128A1545210A128A1583160313FD
:10125E00111508000A128A1545210A128A157308FB
:10126E008312031393000800F300831203130C1E62
:10127E00412942293C29730899000800831603135B
:10128E0014194A294B29452911081F39031D5029C4
:10129E0051294529080083120313981C57295829F0
:1012AE005A29181218168C1E5D295E295A291A08F9
:1012BE000800831203138C1E6529662971290A12F0
:1012CE008A1552210A128A15F00070088312031330
:1012DE00EE008C1272088A00710E8300FE0E7E0ED6
:1012EE000900F5008A29750884000A128A11F5276B
:1012FE000A128A150A128A153B210A128A15013022
:10130E00F4007408F507750884000A128A11F5278F
:10131E000A128A15003A031D952996297A29080082
:10132E008316031398161812831203139817831635
:10133E000313071318130C128312031318168316B4
:10134E0003138C16831203131813831603138717B4
:10135E00623099009A011815831603178711080039
:10136E0083160317880189018316031387018601EB
:10137E008901880183120313860188010030AB00B6
:10138E000130AA008630A900A030A8000A128A15E2
:10139E0058220A128A150A128A1597210A128A15DC
:1013AE000800F701F801731CDD29DE29E429750810
:1013BE00F7070318F80A7608F80701300310F50D41
:1013CE00F60DFF3E031DE52901300310F40CF30C5E
:1013DE00FF3E031DEC2973087404031DF729F82939
:1013EE00DA297808F4007708F3000800F8000A12EA
:1013FE008A151F210A128A15EE30F3000030F40010
:10140E000A128A1531210A128A157808F600F70198
:10141E007608F3007708F4000A128A1531210A12B1
:10142E008A157508F600F7017608F3007708F400C0
:10143E000A128A1531210A128A150A128A152821D2
:10144E000A128A1508000A128A1545210A128A15EF
:10145E008316031391150A128A1545210A128A154D
:10146E00831203131308F500F6017508F7007608CA
:10147E00F8000A128A1545210A128A15730374049C
:10148E00031D4A2A4B2A4F2A831603139112522AFE
:10149E0083160313911611167808F4007708F300DB
:1014AE00080028308312031394008316031391014E
:1014BE00831203132808AC002908AD002A08AE00D9
:1014CE002B08AF0002300310AC0DAD0DAE0DAF0DFD
:1014DE00FF3E031D6A2A2F08A3002E08A2002D0826
:1014EE00A1002C08A0000030A7007A30A600123010
:1014FE00A5000030A4000A128A118D270A128A153F
:10150E00831203132008FF3E8316031393009401E6
:10151E0087150716080083120313A2000A128A15F4
:10152E001F210A128A15EE30F3000030F4000A1261
:10153E008A1531210A128A15831203132208A0007C
:10154E00A1012008F3002108F4000A128A153121A6
:10155E000A128A150A128A151F210A128A15EF30ED
:10156E00F3000030F4000A128A1531210A128A158E
:10157E000030F300F4000A128A152A220A128A1584
:10158E00730883120313A0002008A3000A128A1501
:10159E0028210A128A1583120313230808008312C6
:1015AE000313A7002208A40002300310A40DFF3E6F
:1015BE00031DDC2A2308A50004300310A50DFF3EF1
:1015CE00031DE42A0310250D2404FC39A600260869
:1015DE00A9002108A40002300310A40DFF3E031D34
:1015EE00F32A2008A50004300310A50DFF3E031DAD
:1015FE00FB2A0310250D24042704A6002608A800A4
:10160E002908A4002408F500F5300A128A15FD21D8
:10161E000A128A15831203132808A4002408F50061
:10162E00F4300A128A15FD210A128A1508000030BC
:10163E0083120313B4000030B3000030B200003048
:10164E00B100281C2B2B2C2B432B2C08B1072D085B
:10165E0003110318013E0319352BB2072E0803118F
:10166E000318013E03193C2BB3072F08031103186F
:10167E00013E0319432BB4070130B0000310AC0D2B
:10168E00AD0DAE0DAF0DB00B452B01300310AB0CF5
:10169E00AA0CA90CA80CFF3E031D4D2B2B082A04E7
:1016AE0029042804031D5C2B5D2B282B3408AB006A
:1016BE003308AA003208A9003108A80008008312D6
:1016CE000313A4000A128A151F210A128A15EE307E
:1016DE00F3000030F4000A128A1531210A128A151D
:1016EE00831203132408A200A3012208F300230887
:1016FE00F4000A128A1531210A128A150A128A1565
:10170E001F210A128A15EF30F3000030F4000A127E
:10171E008A1531210A128A150130F3000030F400C7
:10172E000A128A152A220A128A15730883120313C3
:10173E00A2002208A5000030F300F4000A128A1558
:10174E002A220A128A15730883120313A200220892
:10175E00A6000A128A1528210A128A15831203136B
:10176E002608A1002508A00008000A128A15B72134
:10177E000A128A1583120313AA01AA0AAB01AB0A35
:10178E00AC01AD0103300A128A15D2260A128A154F
:10179E00831203132A082B04031DD62BD72BD92B08
:1017AE000615D82BD5300A128A115B250A128A1516
:1017BE00D1300A128A1125200A128A150A128A15A8
:1017CE00A7250A128A1501300A128A1578210A12E3
:1017DE008A15831203136D080A128A153B210A1209
:1017EE008A15831203136C080A128A153B210A12FA
:1017FE008A1503300A128A1578210A128A15831265
:10180E0003136B080A128A153B210A128A158312DA
:10181E0003136A080A128A153B210A128A158312CB
:10182E0003136E08031D1C2C1D2C1F2C0613D92B05
:10183E006E03031D232C242C262C0617D92B0230C5
:10184E006E06031D2B2C2C2C2E2C8613D92B03301D
:10185E006E06031D332C342CD92B8617D92B0A1266
:10186E008A110C28F50183120313A31F3F2C402C61
:10187E004D2CA009A109A209A309A00A0319A10AC6
:10188E000319A20A0319A30AF501F50AA71F502C82
:10189E00512C602CA409A509A609A709A40A0319AD
:1018AE00A50A0319A60A0319A70A0130F300730843
:1018BE00F5060030F9000030F8000030F700003077
:1018CE00F600230822042104200403196F2C702C27
:1018DE00BD2CF401F40A802C0130F3000310A00D8E
:1018EE00A10DA20DA30DF30B752C0130F30073089F
:1018FE00F407A31F832C842C732C0130F3000310E8
:10190E00F60DF70DF80DF90DF30B862C23082702B3
:10191E00031D9B2C22082602031D9B2C2108250249
:10192E00031D9B2C20082402031C9E2C9F2CAE2CE6
:10193E002008A4022108031C210FA5022208031C63
:10194E00220FA6022308031C230FA70276140130D0
:10195E000310A30CA20CA10CA00CFF3E031DAF2C78
:10196E000130F402031DBC2CBD2C842C7508031908
:10197E00C12CC22CCD2CF609F709F809F909F60A83
:10198E000319F70A0319F80A0319F90A7908A300CB
:10199E007808A2007708A1007608A000080083123C
:1019AE000313A7010A128A151F210A128A15EE3097
:1019BE00F3000030F4000A128A1531210A128A153A
:1019CE00F730F3000030F4000A128A1531210A12A2
:1019DE008A150A128A151F210A128A15EF30F30092
:1019EE000030F4000A128A1531210A128A150130CC
:1019FE00F3000030F4000A128A152A220A128A1500
:101A0E00730883120313A0002008A6000130F30010
:101A1E000030F4000A128A152A220A128A15730857
:101A2E0083120313A0002008A5000130F30000303C
:101A3E00F4000A128A152A220A128A1573088312D2
:101A4E000313A0002008A4002408A0002508A1006C
:101A5E002608A2002708A30004300310A30CA20C32
:101A6E00A10CA00CFF3E031D342DFF302005831664
:101A7E000313B500FF3083120313210583160313DE
:101A8E00B6000F3083120313220583160313B7001B
:101A9E00003083120313230583160313B80001309D
:101AAE00F3000030F4000A128A152A220A128A154F
:101ABE00730883120313A0002008A6000130F30060
:101ACE000030F4000A128A152A220A128A157308A7
:101ADE0083120313A0002008A5000030F300F400C9
:101AEE000A128A152A220A128A1573088312031300
:101AFE00A0002008A4000A128A1528210A128A15AD
:101B0E00831203132408A0002508A1002608A200B2
:101B1E002708A30004300310A30CA20CA10CA00CE8
:101B2E00FF3E031D922DFF302005E200FF30210500
:101B3E00E3000F302205E40000302305E500080025
:101B4E0083160313580883120313E9008316031335
:101B5E00570883120313E8008316031356088312E3
:101B6E000313E70083160313550883120313E600CD
:101B7E000030A3000030A2000330A100E830A00026
:101B8E006908A7006808A6006708A5006608A400F3
:101B9E000A128A118D270A128A158312031320083E
:101BAE00A8002808ED006D08A800A9012808F30078
:101BBE002908F400E830F5000330F6000A128A1501
:101BCE00D8210A128A15730883120313AA00740807
:101BDE00AB000030AB1BFF30AC00AD006608AE00B2
:101BEE006708AF006808B0006908B1002A08AE02A5
:101BFE002B08031C2B0F042E052EAF022C08031CE2
:101C0E002C0F0A2E0B2EB0022D08031C2D0F102E9A
:101C1E00112EB1023108E9003008E8002F08E70064
:101C2E002E08E6000030A3000030A2000030A10014
:101C3E006430A0006908A7006808A6006708A50020
:101C4E006608A4000A128A118D270A128A158312B9
:101C5E0003132008A8002808EC006C08A800A901AE
:101C6E002808F3002908F4006430F5000030F6006F
:101C7E000A128A15D8210A128A15730883120313C1
:101C8E00AA007408AB000030AB1BFF30AC00AD00F7
:101C9E006608AE006708AF006808B0006908B100BA
:101CAE002A08AE022B08031C2B0F5E2E5F2EAF02EE
:101CBE002C08031C2C0F642E652EB0022D08031C5D
:101CCE002D0F6A2E6B2EB1023108E9003008E800A4
:101CDE002F08E7002E08E6000030A3000030A20017
:101CEE000030A1000A30A0006908A7006808A6000D
:101CFE006708A5006608A4000A128A118D270A1229
:101D0E008A15831203132008A8002808EB006B081D
:101D1E00A800A9012808F3002908F4000A30F500EC
:101D2E000030F6000A128A15D8210A128A15730895
:101D3E0083120313AA007408AB000030AB1BFF30F4
:101D4E00AC00AD006608AE006708AF006808B000D2
:101D5E006908B1002A08AE022B08031C2B0FB82EFF
:101D6E00B92EAF022C08031C2C0FBE2EBF2EB002B4
:101D7E002D08031C2D0FC42EC52EB1023108E9000B
:101D8E003008E8002F08E7002E08E6006608A800D5
:101D9E002808EA000800F900D0300A128A159222AB
:101DAE000A128A15583A0319DD2EDE2EE32E8312FF
:101DBE000313AA01AB01FF2FB63083120313AE003B
:101DCE002E08F500E0300A128A15FD210A128A1536
:101DDE00023083120313B0000430AF00B930AE00EE
:101DEE00AE0BF72EAF0BF72EB00BF72EFE2EF330F9
:101DFE000A128A1592220A128A150139031D082F1A
:101E0E00092FEF2E88300A128A1566230A128A15B8
:101E1E0083120313210883160313BA0083120313CC
:101E2E00200883160313B9008A300A128A15662316
:101E3E000A128A1583120313210883160313BC009A
:101E4E0083120313200883160313BB008C300A126F
:101E5E008A1566230A128A15831203132108831624
:101E6E000313BE0083120313200883160313BD0051
:101E7E008E300A128A1566230A128A1583120313EC
:101E8E00210883160313C000831203132008831640
:101E9E000313BF0090300A128A1566230A128A15A0
:101EAE0083120313210883160313C2008312031334
:101EBE00200883160313C10092300A128A15662376
:101ECE000A128A1583120313210883160313C40002
:101EDE0083120313200883160313C30094300A12CF
:101EEE008A1566230A128A15831203132108831694
:101EFE000313C60083120313200883160313C500B1
:101F0E0096300A128A1566230A128A158312031353
:101F1E00210883160313C8008312031320088316A7
:101F2E000313C70098300A128A1566230A128A15FF
:101F3E0083120313210883160313CA00831203139B
:101F4E00200883160313C9009A300A128A156623D5
:101F5E000A128A1583120313210883160313CC0069
:101F6E0083120313200883160313CB009C300A122E
:101F7E008A1566230A128A15831203132108831603
:101F8E000313CE0083120313200883160313CD0010
:101F9E009E300A128A1566230A128A1583120313BB
:101FAE00210883160313D00083120313200883160F
:101FBE000313CF00831203132A08AE002E08A000CD
:101FCE002B08AF002F08A1002C08B0003008A2008B
:101FDE002D08B1003108A30079080A128A15D622FD
:101FEE000A128A15013083120313AA000030AB00C7
:021FFE000800D9
:04400E00F423FF3F59
:00000001FF
