:020000040000FA
:100000000A128A11EB2F64008001840A0406031986
:100010000034040604288316031314191028112829
:100020000B2811081F39031D162817280B28080054
:1000300083120313A0007808FA0002300310FA0DAF
:10004000FF3E031D1E287908FB0004300310FB0D42
:10005000FF3E031D262803107B0D7A04FC39FC00AB
:100060007C08A2007708FA0002300310FA0DFF3E68
:10007000031D35287608FB0004300310FB0DFF3EFE
:10008000031D3D2803107B0D7A042004FC007C082E
:10009000A1002208FA007A08F200F5300A128A1547
:1000A00031270A128A11831203132108FA007A08F1
:1000B000F200F4300A128A1531270A128A11080058
:1000C0000030FD000030FC000030FB000030FA0082
:1000D00083120313261C6D286E2885282A08FA0728
:1000E0002B0803110318013E03197728FB072C087E
:1000F00003110318013E03197E28FC072D08031184
:100100000318013E03198528FD070130F90003108B
:10011000AA0DAB0DAC0DAD0DF90B87280130031006
:10012000A90CA80CA70CA60CFF3E031D8F282908BC
:10013000280427042604031D9E289F2868287D087C
:10014000A9007C08A8007B08A7007A08A600080080
:10015000FA000A128A15DC260A128A11EE30F00023
:100160000030F1000A128A15EE260A128A117A0866
:10017000F800F9017808F0007908F1000A128A15F0
:10018000EE260A128A110A128A15DC260A128A1130
:10019000EF30F0000030F1000A128A15EE260A1244
:1001A0008A110130F0000030F1000A128A155E2732
:1001B0000A128A117008F8007808FB000030F0007D
:1001C000F1000A128A155E270A128A117008F800D7
:1001D0007808FC000A128A15E5260A128A117C08A2
:1001E000F7007B08F60008000030FC000030FB0040
:1001F0000030FA000030F9007308720471047004D2
:100200000319032904295129FD01FD0A142901308C
:10021000F8000310F00DF10DF20DF30DF80B0929A4
:100220000130F8007808FD07F31F1729182907295E
:100230000130F8000310F90DFA0DFB0DFC0DF80B61
:100240001A2973087702031D2F2972087602031DED
:100250002F2971087502031D2F2970087402031CD1
:100260003229332942297008F4027108031C710FE6
:10027000F5027208031C720FF6027308031C730F59
:10028000F702791401300310F30CF20CF10CF00CAE
:10029000FF3E031D43290130FD02031D5029512952
:1002A00018297C08F3007B08F2007A08F10079082D
:1002B000F000080083120313A101F31F60296129D4
:1002C0006E29F009F109F209F309F00A0319F10A9C
:1002D0000319F20A0319F30AA101A10AF71F7129F0
:1002E00072298129F409F509F609F709F40A0319B5
:1002F000F50A0319F60A0319F70A0130F80078081D
:10030000A1060030A5000030A4000030A30000309A
:10031000A2007308720471047004031990299129D2
:10032000DE29A001A00AA1290130F8000310F00D78
:10033000F10DF20DF30DF80B96290130F800780855
:10034000A007F31FA429A52994290130F800031060
:10035000A20DA30DA40DA50DF80BA7297308770214
:10036000031DBC2972087602031DBC2971087502A1
:10037000031DBC2970087402031CBF29C029CF29A2
:100380007008F4027108031C710FF5027208031C57
:10039000720FF6027308031C730FF7022214013068
:1003A0000310F30CF20CF10CF00CFF3E031DD029EE
:1003B0000130A002031DDD29DE29A529210803192A
:1003C000E229E329EE29A209A309A409A509A20AA1
:1003D0000319A30A0319A40A0319A50A2508F3009F
:1003E0002408F2002308F1002208F0000800FD00B4
:1003F000D0300A128A15C4270A128A11583A0319F2
:10040000022A032A042AD22AB63083120313A70031
:100410002708F200E0300A128A1531270A128A11E1
:10042000023083120313A9000430A800B930A700DA
:10043000A70B182AA80B182AA90B182A1F2AF33071
:100440000A128A15C4270A128A110139031D292AA2
:100450002A2A102A88300A128A11A8200A128A1120
:10046000770883160313B2007608B1008A300A12A7
:100470008A11A8200A128A11770883160313B40080
:100480007608B3008C300A128A11A8200A128A1149
:10049000770883160313B6007608B5008E300A126B
:1004A0008A11A8200A128A11770883160313B8004C
:1004B0007608B70090300A128A11A8200A128A1111
:1004C000770883160313BA007608B90092300A122F
:1004D0008A11A8200A128A11770883160313BC0018
:1004E0007608BB0094300A128A11A8200A128A11D9
:1004F000770883160313BE007608BD0096300A12F3
:100500008A11A8200A128A11770883160313C000E3
:100510007608BF0098300A128A11A8200A128A11A0
:10052000770883160313C2007608C1009A300A12B6
:100530008A11A8200A128A11770883160313C400AF
:100540007608C3009C300A128A11A8200A128A1168
:10055000770883160313C6007608C5009E300A127A
:100560008A11A8200A128A11770883160313C8007B
:100570007608C700831203132308A7002708F60094
:100580002408A8002808F7002508A9002908F80071
:100590002608AA002A08F9007D080A128A111820E4
:1005A0000A128A11080083120313CA000030AE0039
:1005B0000630AF00FF30B000FF30B1000030F30074
:1005C0000030F2000030F1000230F0005E08F70069
:1005D0005D08F6005C08F5005B08F4000A128A1159
:1005E0005A210A128A11700883120313AE07710888
:1005F0000318710FFC2AFD2AAF0772080318720F47
:10060000022B032BB00773080318730AB1073108D4
:10061000DA003008D9002F08D8002E08D7000030A3
:10062000F3000030F2000030F1000430F0005A080E
:10063000F7005908F6005808F5005708F4000A12A8
:100640008A115A210A128A11730883120313A9000E
:100650007208A8007108A7007008A6000030F30017
:100660000030F2000030F1000430F0005A08F700CA
:100670005908F6005808F5005708F4000A128A11C4
:100680005A210A128A11730883120313AD007208EB
:10069000AC007108AB007008AA000A128A11602031
:1006A0000A128A11831203132908CE002808CD00EC
:1006B0002708CC002608CB000030F3000030F20001
:1006C0000830F1000030F0004E08F7004D08F60049
:1006D0004C08F5004B08F4000A128A115A210A123C
:1006E0008A11730883120313A9007208A800710805
:1006F000A7007008A6008316031341088312031392
:10070000AA0083160313420883120313AB000030C0
:10071000AB1BFF30AC00AD000A128A1160200A1238
:100720008A11831203132908D2002808D100270850
:10073000D0002608CF004F08AE005008AF00510887
:10074000B0005208B100831603133F08831203134D
:10075000A60083160313400883120313A70000307A
:10076000A71BFF30A800A9005A08AD005908AC002B
:100770005808AB005708AA000A128A1160200A1212
:100780008A11831203132608B2002708B300280831
:10079000B4002908B50001300310B20DB30DB40D3B
:1007A000B50DFF3E031DCC2B3208AE0733080318EE
:1007B000330FDB2BDC2BAF0734080318340FE12B8E
:1007C000E22BB00735080318350AB1073108D2000B
:1007D0003008D1002F08D0002E08CF008316031355
:1007E0003D0883120313AE00831603133E088312E1
:1007F0000313AF00B001B10110300310AE0DAF0D07
:10080000B00DB10DFF3E031DFD2B0030F300003095
:10081000F2000030F1000430F0005208F7005108F7
:10082000F6005008F5004F08F4000A128A115A2108
:100830000A128A11700883120313AE077108031895
:10084000710F232C242CAF0772080318720F292C68
:100850002A2CB00773080318730AB1073108D200B5
:100860003008D1002F08D0002E08CF000030F30050
:100870000030F2000030F1000430F0005A08F700B8
:100880005908F6005808F5005708F4000A128A11B2
:100890005A210A128A11730883120313A9007208DD
:1008A000A8007108A7007008A6000030F30000300F
:1008B000F2000030F1000430F0005A08F700590847
:1008C000F6005808F5005708F4000A128A115A2158
:1008D0000A128A11730883120313AD007208AC0068
:1008E0007108AB007008AA000A128A1160200A126F
:1008F0008A11831203132908CE002808CD00270887
:10090000CC002608CB00831603133B088312031385
:10091000A600831603133C0883120313A7000030BC
:10092000A71BFF30A800A9000030F3000030F20040
:100930002030F1000030F0004E08F7004D08F600BE
:100940004C08F5004B08F4000A128A115A210A12C9
:100950008A11730883120313AD007208AC0071088A
:10096000AB007008AA000A128A1160200A128A11CC
:10097000831203132908C1002808C0002708BF00FC
:100980002608BE000030F3000030F2000030F10015
:100990000230F00083160313390883120313A600F4
:1009A000831603133A0883120313A7000030A71B12
:1009B000FF30A800A9005A08AD005908AC0058083B
:1009C000AB005708AA000A128A1160200A128A1185
:1009D000831203132908F7002808F6002708F500FA
:1009E0002608F4000A128A115A210A128A11700884
:1009F00083120313AE007108AF007208B0007308D1
:100A0000B1000030F3000030F2000030F100083097
:100A1000F0004108F7004008F6003F08F5003E08E6
:100A2000F4000A128A115A210A128A1170088312DC
:100A30000313AE0771080318710F1F2D202DAF0788
:100A400072080318720F252D262DB007730803189E
:100A5000730AB1073108C5003008C4002F08C3006D
:100A60002E08C2000030F3000430F2000030F10024
:100A70000030F0004508F7004408F6004308F50090
:100A80004208F4000A128A115A210A128A117308C4
:100A900083120313DA007208D9007108D8007008B5
:100AA000D7000030F3000030F2008030F100003059
:100AB000F0000030AE008030AF000030B0000030F9
:100AC000B1005708AE0758080318580F682D692D54
:100AD000AF0759080318590F6E2D6F2DB0075A082C
:100AE00003185A0AB1073108A9003008A8002F08D6
:100AF000A7002E08A60083160313370883120313DA
:100B0000AA0083160313380883120313AB00AC0149
:100B1000AD010A128A1160200A128A11831203138E
:100B20002908F7002808F6002708F5002608F40031
:100B30000A128A115A210A128A11730883120313A6
:100B4000DA007208D9007108D8007008D7005A0876
:100B5000590458045704031DAE2DAF2DB02DEA2FB4
:100B60000030AE000030AF001030B0000030B100F7
:100B70000030F3000030F2001030F1000030F000DF
:100B80005208F7005108F6005008F5004F08F4002D
:100B90000A128A115A210A128A11831203135F0959
:100BA000B2006009B3006109B4006209B500B20A7D
:100BB0000319B30A0319B40A0319B50A7008B2027B
:100BC0007108031C710FE52DE62DB3027208031C9A
:100BD000720FEB2DEC2DB4027308031C730FF12D73
:100BE000F22DB5023208AE0733080318330FF92D82
:100BF000FA2DAF0734080318340FFF2D002EB0076D
:100C000035080318350AB1073108A9003008A800D3
:100C10002F08A7002E08A6000030AD000030AC0061
:100C20000C30AB003530AA000A128A1160200A127B
:100C30008A11831203132908D6002808D500270833
:100C4000D4002608D30080305602031D332E003016
:100C50005502031D332E00305402031D332E003085
:100C60005302031D332E0318362E372E5A2E8312AD
:100C700003135A08F3005908F2005808F100570806
:100C8000F0000310530DF400540DF500550DF6005F
:100C9000560DF7000A128A11F4200A128A117308FD
:100CA00083120313D6007208D5007108D4007008AF
:100CB000D3007C2E831203135A08F3005908F20064
:100CC0005808F1005708F0005608F7005508F600DC
:100CD0005408F5005308F4000A128A11F4200A128D
:100CE0008A110310700D83120313D300710DD40009
:100CF000720DD500730DD6005308AE005408AF0036
:100D00005508B0005608B10003300310B10CB00C08
:100D1000AF0CAE0CFF3E031D852E3108AD00300830
:100D2000AC002F08AB002E08AA005308B2005408EC
:100D3000B3005508B4005608B50003300310B50CD5
:100D4000B40CB30CB20CFF3E031D9E2E3508A90057
:100D50003408A8003308A7003208A6000A128A1136
:100D600060200A128A11831203132608B60027088E
:100D7000B7002808B8002908B9000D300310B90CD5
:100D8000B80CB70CB60CFF3E031DBE2E3908C900C7
:100D90003808C8003708C7003608C6000030F3001E
:100DA0000030F2001030F1000030F0008316031321
:100DB000470883120313A6008316031348088312FF
:100DC0000313A7000030A71BFF30A800A9004908A3
:100DD000AD004808AC004708AB004608AA000A125C
:100DE0008A1160200A128A11831203132908F7005E
:100DF0002808F6002708F5002608F4000A128A11D0
:100E00005A210A128A11730883120313DA00720836
:100E1000D9007108D8007008D7000030F300003006
:100E2000F2002030F1000030F0005308AE0054080A
:100E3000AF005508B0005608B10002300310B10CE5
:100E4000B00CAF0CAE0CFF3E031D1E2F3108A900E5
:100E50003008A8002F08A7002E08A6008316031349
:100E6000450883120313AA0083160313460883124E
:100E70000313AB000030AB1BFF30AC00AD000A1217
:100E80008A1160200A128A11831203132908F700BD
:100E90002808F6002708F5002608F4000A128A112F
:100EA0005A210A128A11730883120313D20072089E
:100EB000D1007108D0007008CF000030F30000307E
:100EC000F2000030F1001030F0004F08AE00500882
:100ED000AF005108B0005208B1005708B2005808DE
:100EE000B3005908B4005A08B50083160313430829
:100EF00083120313B60083160313440883120313EB
:100F0000B7000030B71BFF30B800B9003608B20791
:100F100037080318370F8D2F8E2FB30738080318A3
:100F2000380F932F942FB40739080318390AB507DF
:100F30003208AE0733080318330F9F2FA02FAF07D7
:100F400034080318340FA52FA62FB007350803184F
:100F5000350AB1073108F7003008F6002F08F50010
:100F60002E08F4000A128A115A210A128A117008F6
:100F7000831203135307BA000030031801307107BE
:100F8000BC010318BC0A5407BB000318BC0A720852
:100F90003C07BD010318BD0A5507BC000318BD0A74
:100FA00073083D075607BD003D08D6003C08D50034
:100FB0003B08D4003A08D3004A088400530883133E
:100FC0008000840A54088000840A55088000840A3E
:100FD00056088000080083135B30840070300A12CA
:100FE0008A1103200A128A11A0308400C9300A1223
:100FF0008A1103200A128A1183010A128A15142FFA
:101DB8000A128A110B200A128A15831603131114AA
:101DC80008000A128A110B200A128A1583160313B7
:101DD800111508000A128A110B200A128A157008B8
:101DE80083120313930008008316031788018901DF
:101DF800831603138701860189018801831203135F
:101E0800860188010030A3000130A2008630A100BD
:101E1800A030A0000A128A158C270A128A15080019
:101E28000A128A15F8260A128A1583120313A301C7
:101E3800A30AA401A40AA501A60103300A128A1163
:101E4800F7210A128A156C300A128A11D3220A1253
:101E58008A15272F0A128A110028F5000A128A15F6
:101E6800DC260A128A15EE30F0000030F1000A1262
:101E78008A15EE260A128A157508F300F40173080C
:101E8800F0007408F1000A128A15EE260A128A1563
:101E98007208F300F4017308F0007408F1000A12E4
:101EA8008A15EE260A128A150A128A15E5260A12DA
:101EB8008A1508000A128A110B200A128A1583163D
:101EC800031391150A128A110B200A128A1583121C
:101ED80003131308F200F3017208F4007308F50005
:101EE8000A128A110B200A128A1570037104031D45
:101EF8007E2F7F2F832F831603139112862F83162D
:101F08000313911611167508F1007408F000080003
:101F1800283083120313940083160313910183124C
:101F280003132008A4002108A5002208A6002308FE
:101F3800A70002300310A40DA50DA60DA70DFF3EA6
:101F4800031D9E2F2708F3002608F2002508F1003C
:101F58002408F0000030F7007A30F6001230F5005F
:101F68000030F4000A128A11F4200A128A15700847
:101F7800FF3E831603139300940187150716080084
:101F8800F8000A128A15DC260A128A15EE30F000CB
:101F98000030F1000A128A15EE260A128A1578080E
:101FA800F600F7017608F0007708F1000A128A15A2
:101FB800EE260A128A150A128A15DC260A128A15D2
:101FC800EF30F0000030F1000A128A15EE260A12EE
:101FD8008A150030F000F1000A128A155E270A12ED
:101FE8008A157008F6007608F9000A128A15E5269F
:081FF8000A128A15790808009D
:04400E00F423FF3F59
:00000001FF
