:020000040000FA
:060000000A128A11EC2F28
:100010000310831203133C0D3D0DBE003E08C400C7
:100020004408031D142815281E280030BD00003088
:10003000BC000030BB000030BA0083283A08BE0084
:100040003B08BF003C08C0003D08C1001F30031042
:10005000C10CC00CBF0CBE0CFF3E031D27283E0880
:10006000C2004208C300BC17FF30BA05FF30BB0511
:10007000FF30BC050030BD059630C402C41F4128C6
:1000800042285C284408803A973E031848284928AB
:100090004A28152801300310BD0CBC0CBB0CBA0C4F
:1000A000FF3E031D4B280130BE003E08C407031D60
:1000B0005A285B284A28732820304402031C6128F0
:1000C00062286E2815280130BE000310BA0DBB0D42
:1000D000BC0DBD0DBE0B65280130C4024408031DD4
:1000E00072287328632843080319772878288328FF
:1000F000BA09BB09BC09BD09BA0A0319BB0A03192D
:10010000BC0A0319BD0A08007A0883120313A00071
:10011000A1012008F0002108F1007C08F3007B0811
:10012000F2000A128A159A250A128A11710883129E
:100130000313CA007008C9006430F0000030F100F9
:100140004A08F3004908F2000A128A15E6250A1245
:100150008A11700883120313A0002008FD007D0897
:10016000A000A1012008F0002108F1009C30F2005D
:10017000FF30F3000A128A159A250A128A11831297
:10018000031349087007C9004A0803184A0A71078F
:10019000CA000A30F0000030F1004A08F3004908B4
:1001A000F2000A128A15E6250A128A1170088312D3
:1001B0000313A0002008F8007808A000A10120087F
:1001C000F0002108F100F630F200FF30F3000A12CF
:1001D0008A159A250A128A11831203134908700797
:1001E000C9004A0803184A0A7107CA004908A00052
:1001F0002008F900F401F40A02300A128A15512588
:100200000A128A117D08303E83120313A0002008D1
:10021000FD007D080A128A15EF240A128A110230A5
:1002200083120313A0002008F40002300A128A157A
:1002300051250A128A1103300A128A1575250A12ED
:100240008A11033083120313A0002008F400023047
:100250000A128A1551250A128A117808303E831233
:100260000313A0002008F80078080A128A15EF246A
:100270000A128A11043083120313A0002008F4002C
:1002800002300A128A1551250A128A117908303E65
:1002900083120313A0002008F90079080A128A15B6
:1002A000EF240A128A1108000A128A1535250A124B
:1002B0008A110A128A152A260A128A110A128A1526
:1002C000E2240A128A118312031306100D308312DE
:1002D0000313C600FB30C500C50B6C29C60B6C2987
:1002E00001300A128A15CC240A128A110A128A15C0
:1002F000D9240A128A1183120313C5004508D600B7
:100300000D3083120313C600FB30C500C50B8629D0
:10031000C60B862983120313061486100D30831230
:100320000313C600FB30C500C50B9429C60B9429E6
:1003300001300A128A15CC240A128A110A128A156F
:10034000D9240A128A1183120313C5004508D40068
:100350000D3083120313C600FB30C500C50BAE2958
:10036000C60BAE2983120313861406110D308312B7
:100370000313C600FB30C500C50BBC29C60BBC2946
:1003800001300A128A15CC240A128A110A128A151F
:10039000D9240A128A1183120313C5004508D50017
:1003A0000D3083120313C600FB30C500C50BD629E0
:1003B000C60BD629831203130615F401F40A013083
:1003C0000A128A1551250A128A1101300A128A1559
:1003D00075250A128A11073083120313C5004508D8
:1003E000F40001300A128A1551250A128A110530CB
:1003F0000A128A1575250A128A110D308312031309
:10040000C5004508F40001300A128A1551250A1268
:100410008A1109300A128A1575250A128A11F80103
:10042000F901831203135608C5004508FA0002308B
:10043000FB000030FC0000300A128A1184200A12EE
:100440008A11F801F901831203135408C500450805
:10045000FA000130FB000030FC0000300A128A155F
:1004600040270A128A1145308312031355020318DC
:100470003A2A3B2A622B5508C500C601C701C801AC
:100480004808F3004708F2004608F1004508F0006C
:1004900001300A128A1586260A128A1173088312FD
:1004A0000313A7007208A6007108A5007008A40035
:1004B0003F30A3004F30A2005C30A1002930A000E3
:1004C0000A128A118B240A128A1183120313230839
:1004D000BD002208BC002108BB002008BA000A1297
:1004E0008A1108200A128A11831203133B08CA00DA
:1004F0003A08C9003730C50049084502C9004A0911
:100500000318013ECA004A08F1004908F0000A3009
:10051000F2000030F3000A128A159A250A128A1195
:10052000710883120313CA007008C9006430F00018
:100530000030F1004A08F3004908F2000A128A1557
:10054000E6250A128A11700883120313C5004508B4
:10055000D0005008C500C6014508F0004608F1006B
:100560009C30F200FF30F3000A128A159A250A1215
:100570008A118312031349087007C9004A08031837
:100580004A0A7107CA000A30F0000030F1004A0838
:10059000F3004908F2000A128A15E6250A128A11A8
:1005A000700883120313C5004508CF004F08C5002B
:1005B000C6014508F0004608F100F630F200FF30B1
:1005C000F3000A128A159A250A128A11831203135C
:1005D00049087007C9004A0803184A0A7107CA0087
:1005E0004908C5004508CE000C30C5004508F40098
:1005F00002300A128A1551250A128A110F300A1286
:100600008A1575250A128A110D3083120313C5004D
:100610004508F40002300A128A1551250A128A117F
:10062000831203135008303EC5004508D00050081F
:100630000A128A15EF240A128A110E30831203134C
:10064000C5004508F40002300A128A1551250A1225
:100650008A11831203134F08303EC5004508CF00AE
:100660004F080A128A15EF240A128A110F308312DA
:100670000313C5004508F40002300A128A155125FB
:100680000A128A1111300A128A1575250A128A1166
:10069000103083120313C5004508F40002300A121B
:1006A0008A1551250A128A11831203134E08303E0F
:1006B000C5004508CE004E080A128A15EF240A121A
:1006C0008A1163295508C500C601C701C801480839
:1006D000F3004708F2004608F1004508F000013039
:1006E0000A128A1586260A128A11730883120313C6
:1006F000A7007208A6007108A5007008A4003F308A
:10070000A3004F30A2005C30A1002930A0000A12E3
:100710008A118B240A128A11831203132308BD0045
:100720002208BC002108BB002008BA000A128A1166
:1007300008200A128A11831203133B08CA003A08E0
:10074000C9004908C93EC9004A080318013EFF3ED6
:10075000CA004A08F1004908F0000A30F2000030EF
:10076000F3000A128A159A250A128A117108831257
:100770000313CA007008C9006430F0000030F100B3
:100780004A08F3004908F2000A128A15E6250A12FF
:100790008A11700883120313C5004508D000500861
:1007A000C500C6014508F0004608F1009C30F20083
:1007B000FF30F3000A128A159A250A128A11831251
:1007C000031349087007C9004A0803184A0A710749
:1007D000CA000A30F0000030F1004A08F30049086E
:1007E000F2000A128A15E6250A128A11700883128D
:1007F0000313C5004508CF004F08C500C6014508D2
:10080000F0004608F100F630F200FF30F3000A1263
:100810008A159A250A128A11831203134908700750
:10082000C9004A0803184A0A7107CA004908C500E6
:100830004508CE000C30C5004508F40002300A120D
:100840008A1551250A128A110D300A128A1575254A
:100850000A128A110D3083120313C5004508F400F3
:1008600002300A128A1551250A128A1183120313C3
:100870005008303EC5004508D00050080A128A15BD
:10088000EF240A128A110E3083120313C5004508A3
:10089000F40002300A128A1551250A128A118312B5
:1008A00003134F08303EC5004508CF004F080A1219
:1008B0008A15EF240A128A110F3083120313C50020
:1008C0004508F40002300A128A1551250A128A11CD
:1008D00011300A128A1575250A128A1110308312F6
:1008E0000313C5004508F40002300A128A15512589
:1008F0000A128A11831203134E08303EC5004508C0
:10090000CE004E080A128A15EF240A128A116329B2
:100910000A128A1100288312031323088039A800C1
:100920002808AD002308A8002807A9002908B3005B
:10093000A21F9B2C9C2C9D2C331433080319A12C33
:10094000A22CB12C330A031DA62CA72CAF2C0030EF
:10095000A3000030A2000030A1000030A000A217C8
:10096000B92C0030A3000030A2000030A1000030FC
:10097000A00027088039A8002808AD062708A8008D
:100980002807A9002908B200A61FC72CC82CC92C0B
:10099000321432080319CD2CCE2CDD2C320A031D63
:1009A000D22CD32CDB2C0030A7000030A600003066
:1009B000A5000030A400A617E52C0030A7000030E9
:1009C000A6000030A5000030A40032080319E92C6D
:1009D000EA2CEF2C3308031DEE2CEF2CF82C003002
:1009E000A3000030A2000030A1000030A000EB2FD7
:1009F0002008A8002808F00026080A128A15BF253A
:100A00000A128A11710883120313B9007008B80022
:100A10003808A800A901AA01AB012B08B1002A08D7
:100A2000B0002908AF002808AE003908A800A901C5
:100A3000AA01AB012B08B7002A08B6002908B500A7
:100A40002808B4002108A8002808F00025080A1288
:100A50008A15BF250A128A11710883120313B9007F
:100A60007008B8003808A800A901AA01AB0128083D
:100A7000AE07290803110318013E0319402DAF07E3
:100A80002A0803110318013E0319472DB0072B084C
:100A900003110318013E03194E2DB1073908A800B0
:100AA000A901AA01AB012808B407290803110318FA
:100AB000013E03195C2DB5072A0803110318013EF6
:100AC0000319632DB6072B0803110318013E031900
:100AD0006A2DB7072208A8002808F00024080A1287
:100AE0008A15BF250A128A11710883120313B900EF
:100AF0007008B8003808A800A901AA01AB012808AD
:100B0000AE07290803110318013E0319882DAF070A
:100B10002A0803110318013E03198F2DB0072B0873
:100B200003110318013E0319962DB1073908A800D7
:100B3000A901AA01AB012808B40729080311031869
:100B4000013E0319A42DB5072A0803110318013E1D
:100B50000319AB2DB6072B0803110318013E031927
:100B6000B22DB7070830A8000310AE0DAF0DB00DC1
:100B7000B10DA80BB42D2108A8002808F000240806
:100B80000A128A15BF250A128A11710883120313EB
:100B9000B9007008B8003808A8003908A900AA01EF
:100BA000AB012808AE07290803110318013E0319F9
:100BB000DA2DAF072A0803110318013E0319E12DAE
:100BC000B0072B0803110318013E0319E82DB107E4
:100BD0002008A8002808F00025080A128A15BF2559
:100BE0000A128A11710883120313B9007008B80041
:100BF0003808A8003908A900AA01AB012808AE07E7
:100C0000290803110318013E0319072EAF072A080C
:100C100003110318013E03190E2EB0072B08031110
:100C20000318013E0319152EB1070830A800031060
:100C3000AE0DAF0DB00DB10DA80B172E2008A800FA
:100C40002808F00024080A128A15BF250A128A1102
:100C5000710883120313B9007008B8003808A8009F
:100C60003908A900AA01AB012808AE072908031119
:100C70000318013E03193D2EAF072A08031103187C
:100C8000013E0319442EB0072B0803110318013E3F
:100C900003194B2EB1072108A8002808F0002608E8
:100CA0000A128A15BF250A128A11710883120313CA
:100CB000B9007008B8003808A8003908A900AA01CE
:100CC000AB012808B407290803110318013E0319D2
:100CD0006A2EB5072A0803110318013E0319712E65
:100CE000B6072B0803110318013E0319782EB70726
:100CF0002208A8002808F00025080A128A15BF2536
:100D00000A128A11710883120313B9007008B8001F
:100D10003808A8003908A900AA01AB012808B407BF
:100D2000290803110318013E0319972EB5072A0855
:100D300003110318013E03199E2EB6072B08031159
:100D40000318013E0319A52EB7072208A80028089A
:100D5000F00026080A128A15BF250A128A117108A6
:100D600083120313B9007008B8003808A8003908C6
:100D7000A900AA01AB0108300310A80DA90DAA0D06
:100D8000AB0DFF3E031DBC2E2808B4072908031134
:100D90000318013E0319CD2EB5072A0803110318C5
:100DA000013E0319D42EB6072B0803110318013E88
:100DB0000319DB2EB7072E08A8002F08A90030085A
:100DC000AA003108AB0018300310AB0CAA0CA90C18
:100DD000A80CFF3E031DE42E2808B40729080311C0
:100DE0000318013E0319F52EB5072A08031103184D
:100DF000013E0319FC2EB6072B0803110318013E10
:100E00000319032FB7070830A8000310AE0DAF0D6C
:100E1000B00DB10DA80B052F33083207A800A901AA
:100E2000A90D2808823EB80029080318013EFF3E9C
:100E3000B900372F0130A8000310B40DB50DB60D61
:100E4000B70DA80B1C2FB11F262F272F282F3414C6
:100E50000130A8000310AE0DAF0DB00DB10DA80B01
:100E60002A2FFF30B8070318B90AFF30B907B61F99
:100E70003A2F3B2F1A2FB201B11F3F2F402F5C2F6B
:100E8000FF302E05A800FF302F05A900FF303005E8
:100E9000AA007F303105AB002B082A04290428045E
:100EA0000319532F542F572FB201B20A5C2F341C51
:100EB0005A2F5B2F5C2F542F32080319602F612F9C
:100EC000922F0130B407003003180130B50700300D
:100ED00003180130B607003003180130B707371C7C
:100EE000722F732F922F3408A8003508A9003608F6
:100EF000AA003708AB000130AC002B0DAB0CAA0CDC
:100F0000A90CA80CAC0B7D2F2B08B7002A08B60043
:100F10002908B5002808B4000130B8070318B90A39
:100F20000030B9073908803AFF0080307F02031D86
:100F30009B2FFF303802031C9E2F9F2FAA2F7F303C
:100F400083120313B7008030B6000030B5000030C4
:100F5000B400DF2F831203133908803AFF0080307A
:100F60007F02031DB52F013038020318B82FB92FA7
:100F7000C52F003083120313B7000030B6000030D5
:100F8000B5000030B400AD01DF2F83120313380821
:100F9000A8002808B300FF30B405FF30B5057F3046
:100FA000B6050030B705331CD62FD72FD82FB6176C
:100FB0003308A8000310280CA9002908B7002D0841
:100FC000A8002808B7043708A3003608A20035088F
:100FD000A1003408A000080083120313C901CA014C
:100FE000CB01CC01CD01CE01CF01D001D101D20185
:100FF000D301D401D501D60183010A128A115429E3
:1010000008308A000408840A8207003453343134DB
:101010003A340034533432343A34003453343334B1
:101020003A3400342B3400342D3400342E34003460
:10198C00F00070088312031388000800F000700840
:10199C00831203139300080083160313141CD72C13
:1019AC00D82CD22C08000A128A15D2240A128A15B5
:1019BC00831203131308080000300A128A151B2522
:1019CC000A128A1501300A128A151B250A128A1569
:1019DC000800F20083120313091472080A128A1504
:1019EC00C6240A128A158312031389141A30F100C3
:1019FC00F10BFE2C00008312031389100800F30076
:101A0C00831603138712731D0C2D0D2D112D7208C7
:101A1C0094008715152D70087204940087117308B3
:101A2C0071048312031394000800F3008312031350
:101A3C00091073080A128A15C6240A128A15831211
:101A4C00031389140B30F2006230F100F10B2C2DD2
:101A5C00F20B2C2D0000831203138910080083163F
:101A6C000317880189018316031387010716860162
:101A7C0089018801831203138601880106148614D8
:101A8C000615F001F101F20120300A128A15052524
:101A9C000A128A150800F6007603031D562D572DE1
:101AAC00632D74087F3EF5007508F70077080A125D
:101ABC008A151B250A128A15742D02307606031D11
:101ACC00682D692D742D7408BF3EF5007508F7005C
:101ADC0077080A128A151B250A128A150800F500C8
:101AEC00F301F4018C2D7308750784000A128A1512
:101AFC0000200A128A150A128A15EF240A128A1576
:101B0C000130F3070318F40A0030F4077308750763
:101B1C0084000A128A1500200A128A15003A031D45
:101B2C00982D992D792D0800F401F501701C9F2D2D
:101B3C00A02DA62D7208F4070318F50A7308F507F3
:101B4C0001300310F20DF30DFF3E031DA72D0130E4
:101B5C000310F10CF00CFF3E031DAE2D7008710448
:101B6C00031DB92DBA2D9C2D7508F1007408F000D9
:101B7C000800F800F401F5017008F200F301720896
:101B8C00F6007308F700781CCC2DCD2DD32D7608DC
:101B9C00F4070318F50A7708F50701300310F60D62
:101BAC00F70DFF3E031DD42D0310F80C7808031D10
:101BBC00E02DE12DC92D7508F1007408F000080026
:101BCC00F501F601700871040319ED2DEE2D252E8B
:101BDC00F701F70AFC2D01300310F00DF10DFF3E5B
:101BEC00031DF22D0130F4007408F707F11FFF2DCF
:101BFC00002EF12D01300310F50DF60DFF3E031DE7
:101C0C00012E71087302031D0D2E70087202031C45
:101C1C00102E112E182E7008F2027108031CF303FB
:101C2C00F302751401300310F10CF00CFF3E031D90
:101C3C00192E0130F702031D242E252E002E7608B6
:101C4C00F1007508F00008000330F6000830F500CC
:101C5C007730F400F40B302EF50B302EF60B302EC3
:101C6C0000300A128A15C6240A128A154130F50072
:101C7C00EE30F400F40B402EF50B402E000030300B
:101C8C000A128A151B250A128A151330F5002D30FD
:101C9C00F400F40B4F2EF50B4F2E30300A128A1530
:101CAC001B250A128A158530F400F40B5B2E30309C
:101CBC000A128A151B250A128A158530F400F40BBA
:101CCC00652E38300A128A151B250A128A15103017
:101CDC000A128A151B250A128A1501300A128A1556
:101CEC001B250A128A1506300A128A151B250A12A0
:101CFC008A150C300A128A151B250A128A1508003F
:101D0C00F800780803198B2E8C2EA02EF31F8F2E23
:101D1C00902EA02E7009FA007109FB007209FC00CC
:101D2C007309FD00FA0A0319FB0A0319FC0A0319CB
:101D3C00FD0AA82E7308FD007208FC007108FB0058
:101D4C007008FA007308720471047004031DAF2E3E
:101D5C00B02EB92E0030F3000030F2000030F1004C
:101D6C000030F0003F2F9630F4007408F900CB2EB1
:101D7C000130F4007408F90701300310FD0CFC0C61
:101D8C00FB0CFA0CFF3E031DC32EFE307D05031D1C
:101D9C00D02ED12EBE2EED2E0130F4007408F90792
:101DAC000130FA07003003180130FB07003003182C
:101DBC000130FC07003003180130FD07013003101F
:101DCC00FD0CFC0CFB0CFA0CFF3E031DE52EFF304A
:101DDC007D05031DF22EF32ED22EFF2E0130F902BB
:101DEC000130F4000310FA0DFB0DFC0DFD0DF40B8E
:101DFC00F82EFC1B022F032F092F02307902031837
:101E0C00082F092FF42E79180C2F0D2F152FFF30BA
:101E1C00FA05FF30FB057F30FC05FF30FD05031094
:101E2C00F90C7908F400F501F601F70118300310EC
:101E3C00F40DF50DF60DF70DFF3E031D1D2F740867
:101E4C00FA047508FB047608FC047708FD0478088E
:101E5C000319312F322F372FF31F352F362F372FF2
:101E6C00FD177D08F3007C08F2007B08F1007A086E
:101E7C00F00008007A0883120313A000A1012008C7
:101E8C00F0002108F1007C08F3007B08F2000A1234
:101E9C008A159A250A128A15710883120313CA002F
:101EAC007008C9006430F0000030F1004A08F300FB
:101EBC004908F2000A128A15E6250A128A157008DA
:101ECC0083120313A0002008FD007D08A000A101CF
:101EDC002008F0002108F1009C30F200FF30F300E4
:101EEC000A128A159A250A128A15831203134908B5
:101EFC007007C9004A0803184A0A7107CA000A3059
:101F0C00F0000030F1004A08F3004908F2000A1210
:101F1C008A15E6250A128A15700883120313A0008D
:101F2C002008F8007808A000A1012008F000210882
:101F3C00F100F630F200FF30F3000A128A159A25F0
:101F4C000A128A158312031349087007C9004A083C
:101F5C0003184A0A7107CA004908A0002008F900B2
:101F6C000730A0002008F40002300A128A1551250F
:101F7C000A128A157D08303E83120313A000200834
:101F8C00FD007D080A128A15EF240A128A15083002
:101F9C0083120313A0002008F40002300A128A15E1
:101FAC0051250A128A157808303E83120313A000BB
:101FBC002008F80078080A128A15EF240A128A15EC
:101FCC00093083120313A0002008F40002300A1217
:101FDC008A1551250A128A157908303E831203138B
:101FEC00A0002008F90079080A128A15EF240A12B9
:041FFC008A1508003A
:04400E00D423FF3F79
:00000001FF
