:020000040000FA
:060000000A128A110C280F
:10000800FE00030EF2000A08F3000A128A11A6285D
:100018000A128A110F28F601F701F801F901830184
:100028000A128A1117280A128A11BD200A128A1187
:10003800F601F7010A128A11D3200A128A11F8016F
:10004800F9010030F400F5000A128A118F200A1213
:100058008A1176087704031D322833284528013091
:10006800F6000030F7001A3083120313A100F730AE
:10007800A000A00B3D28A10B3D28422883120313A2
:100088009F147908803AFF0080307F02031D4E28B4
:100098006430780203185128522858288312031311
:1000A8000814881008112D287908803AFF0080303C
:1000B8007F02031D612865307802031C64286528C7
:1000C80078287908803AFF0080307F02031D6E2867
:1000D8007230780203187128722878288312031363
:1000E8008814081008112D287908803AFF008030FC
:1000F8007F02031D812873307802031C8428852819
:100108008B28831203138810081008152D282D2812
:100118000A128A110C2874087504031D942895285E
:100128009928C330831203139F0574037504031DB4
:100138009E289F28A528831203131F08C339043853
:100148009F000800831203130C1FAB28AC28B528A6
:100158001E08F000F1017008F8007108F900F601B6
:10016800F7010C1373088A00720E8300FE0E7E0ED0
:1001780009008B170B1783160317880189010814C8
:1001880083160313870186018801890185010514F7
:1001980083120313880186018701890108008312ED
:1001A80003131F179F133030831603139F00C330A8
:1001B800831203139F051F14831603130C1783124E
:0601C80003130C130800F4
:04400E00D423FF3F79
:00000001FF
