:020000040000FA
:060000000A128A110C280F
:10000800FE00030EF3000A08F4000A128A11912870
:100018000A128A110F28F501F601F701F801830188
:100028000A128A1117280A128A11B5200A128A118F
:10003800F501F6010A128A1106210A128A11F7013E
:10004800F801003083120313A000A1000A128A11DC
:10005800F1200A128A1175087604031D3428352800
:1000680047280130F5000030F6001A3083120313D8
:10007800A500F730A400A40B3F28A50B3F2844286F
:10008800831203139F147808803AFF0080307F02A0
:10009800031D5028643077020318532854285A281F
:1000A800831203130814881008112F287808803A3F
:1000B800FF0080307F02031D632865307702031C30
:1000C800662867287A287808803AFF0080307F02FF
:1000D800031D7028723077020318732874287A2851
:1000E800831203138814081008112F287808803AFF
:1000F800FF0080307F02031D832873307702031CC2
:10010800862887288D28831203138810081008155D
:100118002F282F280A128A110C28831203130C1F68
:1001280096289728A0281E08F100F2017108F70008
:100138007208F800F501F6010C138C1DA428A528F7
:10014800AE2877080A128A111A210A128A11831214
:1001580003138C1174088A00730E8300FE0E7E0E42
:1001680009008B170B1783160317880189010814D8
:1001780083160313860188018901850105148312FA
:1001880003138801860187018901A001A101A20149
:1001980024300A128A11D3200A128A110800831205
:1001A8000313A30083160313871283120313231D5B
:1001B800DE28DF28E5282208831603139400871514
:1001C800EB28200822048316031394008711831256
:1001D8000313230821049400080083120313200842
:1001E8002104031DF828F928FB28C3309F052003A4
:1001F8002104031D0029012905291F08C3390438D2
:100208009F000800831203131F179F1330308316B3
:1002180003139F00C330831203139F051F14831613
:1002280003130C17831203130C130800F000700853
:08023800831203139300080078
:04400E00D423FF3F79
:00000001FF
