:020000040000FA
:060000000A128A110C280F
:10000800FE00030EF3000A08F4000A128A111328EE
:100018000A128A110F2883010A128A1156280B1C0A
:100028001628172835280230F2000430F100BA30BB
:10003800F000F00B1D28F10B1D28F20B1D28000005
:1000480083120313861C29282A282F280130F00040
:10005800700888073528061C3228332835280130CF
:1000680088020B1074088A00730E8300FE0E7E0E41
:1000780009008B170B178B15831603178801890145
:10008800831603138701860106148614033096002D
:10009800880189018501831203138801860187017C
:1000A800890108000A128A113D200A128A115B2868
:0600B8000A128A110C2857
:04400E00D423FF3F79
:00000001FF
