:020000040000FA
:060000000A128A110C280F
:10000800FE00030EF4000A08F5000A128A111328EC
:100018000A128A110F2883010A128A118D280B1CD3
:100028001628172835280230F3000430F200BA30B9
:10003800F100F10B1D28F20B1D28F30B1D28000001
:1000480083120313861C29282A282F280130F1003F
:10005800710888073528061C3228332835280130CE
:1000680088020B10831203138C1D3B283C2845285B
:1000780006080A128A1196200A128A11831203139B
:100088008C1175088A00740E8300FE0E7E0E09001E
:100098008B170B178B158316031788018901831695
:1000A8000313860187010614861407160330960089
:1000B800880189018501831203138801860187015C
:1000C8008901A001A101A20124300A128A116F201E
:1000D8000A128A110800F600831603138712761D88
:1000E800762877287F2883120313220883160313A0
:1000F8009400871587288312031320082204831687
:1001080003139400871176088312031321049400C3
:1001180008000A128A114C200A128A1192280A121F
:100128008A110C28F000700883120313930008004A
:04400E00D423FF3F79
:00000001FF
